:100000000C94C0030C94DD030C94DD030C94DD030D
:100010000C94DD030C94DD030C94DD030C94DD03E0
:100020000C94DD030C94DD030C942F150C947114C7
:100030000C946D220C94DD030C94DD030C94DD0311
:100040000C94DD030C94DD030C94DD030C94DD03B0
:100050000C94DD030C9439160C94DD030C94DD0331
:100060000C94DD030C94DD030C94DD030C94DD0390
:100070000C94DD030C94DD030C94DD030C94DD0380
:100080000C94DD030C94DD030C94DD030C94DD0370
:100090000C94DD030C94DD030C94DD030C94DD0360
:1000A0000C94DD030C94DD030C94DD03D804DD0413
:1000B000E704DB04E004E504E304E905F705FC05D7
:1000C000010606060B06100615061A061F0624066C
:1000D0002B062D062F063106F808F808F808F80850
:1000E000F808F808FC06FC062F072F07AC07CA071C
:1000F000D008D008CF07430854085408300A330A00
:10010000360A390A3C0A3F0A420A8412AB125914D1
:10011000AB125914F7121A1359140F141F14BD1FE0
:10012000CA1F9D1DE61FD61FE41FE41FE21FE41F28
:1001300005010980A101850319012AB700150126CF
:10014000B700950175108100C0050C0901A101855A
:100150000419012AA002150126A00295017510813B
:1001600000C005010906A1018506050719E029E778
:10017000150025019508750181020507190029EF71
:100180001500250195F07501810205081901290561
:10019000950575019102950175039101C00501094D
:1001A00002A1010901A1000509190129081500256D
:1001B0000195087501810205010930093115812574
:1001C0007F95027508810609381581257F9501758F
:1001D000088106050C0A38021581257F95017508EE
:1001E0008106C0C00660FF0961A1010962150026F1
:1001F000FF009520750881020963150026FF009510
:100200002075089102C005010906A101050719E042
:1002100029E71500250195087501810295017508EA
:1002200081010507190029FF150026FF00950675B5
:100230000881000508190129051500250195057596
:10024000019102950175039101C009027400040136
:1002500000A0FA09040000010301010009211101B5
:100260000001224400070581030800010904010080
:1002700002030000000921110100012222000705EC
:100280008303200001070504032000010904020084
:1002900001030102000921110100012247000705A5
:1002A0008203080001090403000103000000092182
:1002B00011010001226D00070585032000011201D4
:1002C0000002000000089732764901000102000197
:1002D00020034500720067006F0044006F00780043
:1002E000200045005A00200047006C006F00770096
:1002F000000028035A00530041002000540065000C
:10030000630068006E006F006C006F00670079008A
:1003100020004C0061006200730000000403090427
:10032000010031002B00E100490000003A003400D8
:10033000040033004A00E3003B00360012001400C2
:100340004E0022523C00370008000D004B00E00038
:100350003D00130018000E004D00E2003E001C009E
:100360000C001B000000E10044001E0200002A00F7
:10037000000029004500380000004C000000E600A5
:100380003F000900070005000000E40040000A00EB
:100390000B0010005000E7004100060017001A0093
:1003A00051002C00420015001100190052002800D5
:1003B00043000F0016001D004F00E50061522E00A3
:1003C0002D00E500235200000100010001000100A2
:1003D000010000001E0001000100010001000100F9
:1003E0001F000100010001000100010020000100C8
:1003F00001000100010001002100010001000100D5
:1004000001000100220001000100010000000100C4
:1004100001000100000001000000010001000100D6
:1004200000000100000001002300010001000100A4
:100430000000010024000100010001000100010092
:10044000250001000100010001000100260001005B
:10045000010001000100010027000100010001006E
:100460000100010001000100010001000100000085
:100470000100010001000100010000000100010075
:1004800026020100010001000100010027021F02F5
:1004900001000100010001002F022F0001000100F6
:1004A000010021023002300001000100010022029F
:1004B00020021E02000001000100010000000100F6
:1004C000000001005300350200000100000001009F
:1004D00001002502330224020000010001005F0038
:1004E0005C00590062000100010060005D005A00DC
:1004F00062000100010061005E005B00500001002D
:10050000010031002E02230201000100010035002C
:100510003102010001000000007C01000100010027
:100520000100000001000100010001000100437E04
:1005300001000100CF000100010027780100CD007B
:10054000CE000100D100287801000100D000010098
:10055000D200427E0100010001000100000021786C
:1005600001000100000001000000417E0100460082
:1005700000000100000020780100010001000100DE
:100580000000407E0100010001000100AC000100FC
:100590000100010001000100AB002378010001000F
:1005A00001000100010024780100A900AA00A800B0
:1005B000AE00010001000100010001000100000087
:1005C0000044345400746484005545650085759575
:1005D0000036264600665676009686A600372747E0
:1005E00000776787003828480088789800392949BB
:1005F00000695979009989A9003A2A4A006A5A7A09
:10060000003B2B4B006B5B7B004C3C5C007C6C8CA0
:10061000005D4D6D008D7D9D003E2E4E006E5E7E18
:100620000144345401746484015545650185759510
:100630000136264601665676019686A6013727477B
:100640000177678701382848018878980139294956
:1006500001695979019989A9013A2A4A016A5A7AA4
:10066000013B2B4B016B5B7B014C3C5C017C6C8C3C
:10067000015D4D6D018D7D9D013E2E4E016E5E7EB4
:100680000001010101010101010102020202020255
:100690000202020303030303030303040404040428
:1006A00004040505050505060606060607070707EF
:1006B0000708080808090909090A0A0A0B0B0B0CA4
:1006C0000C0C0D0D0D0E0E0E0F0F0F101011111141
:1006D00012121313141415151616171718181919C2
:1006E0001A1A1B1B1C1D1D1E1E1F20202122222327
:1006F0002424252626272829292A2B2C2D2D2E2F68
:1007000030313232333435363738393A3B3C3D3E7E
:100710003F404142434445464748494A4C4D4E4F6D
:1007200050515354555658595A5B5D5E5F6162642F
:10073000656668696B6C6D6F7072737577787A7BBC
:100740007D7E8082838587888A8C8E8F9193959613
:10075000989A9C9EA0A2A3A5A7A9ABADAFB1B3B533
:10076000B7BABCBEC0C2C4C6C9CBCDCFD1D4D6D80F
:10077000DBDDDFE2E4E7E9EBEEF0F3F5F8FAFDFFAD
:1007800011241FBECFEFDAE0DEBFCDBF12E0A0E044
:10079000B1E0ECE0F0E602C005900D92A236B107A0
:1007A000D9F725E0A2E6B2E001C01D92AA3CB2074B
:1007B000E1F70E94BA1C0C9404300C940000A6E0EF
:1007C000B0E0E5EEF3E00C94332E49835A8349817F
:1007D0005A81992361F0222351F0CA010E945024CA
:1007E000182F682F89819A810E94C02404C0CA01F1
:1007F0000E948C24182F69817A81812F0E9493177F
:100800002696E3E00C944F2E109233030E945C2551
:100810002FEF84E39CE0215080409040E1F700C03E
:1008200000009AE088E10FB6F894A89580936000E4
:100830000FBE90936000FFCFABE1B0E0E2E2F4E0E6
:100840000C94322E4E8B5F8B688F798F8A8F9B8FA3
:10085000192F91111092E403DE011F9687E0FD012C
:1008600011928A95E9F786E0FE01769601900D9245
:100870008A95E1F70A8D002341F021E04F855889E0
:1008800069897A89C8010E94DF030B8B1C8B87E082
:10089000FE013F96DE01189601900D928A95E1F7D0
:1008A000CE0108960E94361A81112CC087E0FE0105
:1008B0003896DE01119601900D928A95E1F76C85CC
:1008C000662301F12091880330E0C9010196877009
:1008D00099274091C10350E08417950761F16D831A
:1008E00097E0929FD001939FB00D1124A757BC4F62
:1008F000FE01319601900D929A95E1F7809388035D
:100900000E94D31917E08091C10390918803891741
:1009100009F1189FC001112487579C4F0E94361A75
:100920008823C1F08091C10390E0019687709927D8
:100930008093C103E8CF109233030E945C2510928C
:1009400088031092C103E1E8F3E087E0DF011D9224
:100950008A95E9F76B96E4E00C944E2E982F9295C9
:100960009F7019F0892F24E001C020E0982F969500
:10097000969511F02E5F892F982F969509F02F5F8D
:10098000822F0895CF93C82F0E94AE0456985E9888
:1009900025982D9826982E9827982F9890E0FC015E
:1009A0003197E730F105A8F4EA5AFF4F0C94D02EA6
:1009B000259A2D9A0EC0259A2D9A269A2E9A09C00C
:1009C000259A2D9A04C0259A2D9A269A2E9A279A0E
:1009D0002F9A8C2FCF910895A0E2B0E0E2EFF4E0DF
:1009E0000C942B2EFC018481882309F410C47F0110
:1009F00021E0408151816281738195810E94DF03F2
:100A00008C018091BA05882399F0F70185818823AC
:100A100011F086E001C087E08983F70180818A8335
:100A200081818B838EEF8C83CE0101960E94852B72
:100A3000F70185810115FEE71F0759F001302EE708
:100A4000120709F440C0003298E7190709F075C091
:100A50005CC0882309F4AFC09091F00381E0890F56
:100A60008770987F853020F4892B8093F00302C033
:100A70009093F0038091F0038770EFEF8E9FC00199
:100A80001124959587959595879599279093890039
:100A90008093880090938B0080938A0090938D00C0
:100AA00080938C004091F0035091F1036091F20328
:100AB0007091F3038FE090E00E94AA2E80910204CF
:100AC0000E94C20474C0882309F475C08091F003A9
:100AD00083FB222720F991E0922790FB83F98093F2
:100AE000F003992329F040E060E080E00E94E10AF1
:100AF0004091F0035091F1036091F2037091F30380
:100B00008FE090E00E94AA2E52C0882309F470C39F
:100B10009091C3058091BD059F3F59F41092C30584
:100B200081608093BD0540E060E080E00E94E10AC2
:100B30005FC39FEF9093C30556C00134FEE71F07C4
:100B400099F028F400349EE7190751F030C00234C0
:100B5000EEE71E07A1F00334FEE71F07D9F027C018
:100B6000882309F445C377C0882309F441C381E091
:100B70000E94C1234FEF6FEF8CEA90E015C08823ED
:100B800009F436C381E00E94C12340E86FEF86E597
:100B900090E00AC0882309F42BC381E00E94C1239E
:100BA0004FEF6FEF8BE190E00E94322B21C3F701F2
:100BB000858181115AC0809133038272F801E0521D
:100BC000F847E531F10508F0C1C0E35AFF4F0C9436
:100BD000D02E9091BE0581E089278093BE051092AA
:100BE00018018091BD0581608093BD0501C348E572
:100BF00052E262E672E22CC042E652E268E572E23C
:100C000027C044E452E26EE472E222C04EE452E2B3
:100C100064E472E21DC04AE252E267E372E218C085
:100C200047E352E26AE272E213C040E152E26DE150
:100C300072E20EC04DE152E260E172E209C04CE0A6
:100C400050E26AE170E204C04AE150E26CE070E216
:100C50000E945B23CDC281E005C085E003C08DE02A
:100C600001C082E10E94C123C3C203302CE71207F6
:100C700009F459C048F401159CE71907A9F001309F
:100C80001C4709F456C062C00B35FCE71F0709F486
:100C90005AC00C352CE7120709F44DC00A351C4721
:100CA00009F054C081E050C0109233030E945C25CB
:100CB0009FEFE4E3FCE09150E040F040E1F700C03A
:100CC0000000F89481E08093E00080E28093D800F7
:100CD0001092C9008FE19EE40197F1F700C0000077
:100CE0001DBA109268001CBC10BE1FBA10927A0088
:100CF00010926E0010926F001092710010927200AC
:100D00001092C9001092BC0014B817B81AB81DB8D8
:100D100010BA1092BC0015B818B81BB81EB811BA9A
:100D20000C94003F65C26FEF7FEF80E090E00E947F
:100D3000B62E0E9404048091310382FB882780F93B
:100D400091E0892701C080E00E94BC19F7018581EC
:100D500000811181882349F0C8010E945024D82EB7
:100D6000682FC8010E94C02404C0C8010E948C24BE
:100D7000D82EB8018D2D0E9493170E94B017D82E3F
:100D8000192FA82EF7010581C680C2949FE0C922C1
:100D90008091C203877001F10023F1F0812F807FE1
:100DA000803469F080E28D0D8830B0F0812F807E34
:100DB000803229F4F1E0FD1578F4CC2069F08091BF
:100DC000310382FF09C082E00E94A5198091C2030D
:100DD0008770BB24B3948111B12C912E92948FE033
:100DE0009822892D90E08C30910508F0D9C1FC0142
:100DF000EE58FF4F0C94D02E812F807F1F708823D8
:100E000011F01295107F0023B9F0112309F4B6C137
:100E100080E28D0D883010F0A11006C09091330350
:100E2000192B1093330305C09091E403192B1093F1
:100E3000E4030E945019A2C18D2D0E947226112335
:100E400009F4AEC180E28D0D883088F1AA2079F1D5
:100E500010959091E40319231093E4032BC0812F84
:100E6000807F1F70803211F01295107F8D2DAA2087
:100E700029F021E0A21609F44CC055C0809131033D
:100E800082FD1BC0002369F0112339F090913303D8
:100E9000192B109333030E94501980E00E94D6262C
:100EA0007FC180E00E947226112309F479C1812F4D
:100EB0000E9449190E94501973C1002381F0CC206F
:100EC000B1F181E0C8126CC19091E303812F8923B5
:100ED000181709F465C1192B1093E30361C1C11000
:100EE0005FC1812F0E9489258091E303912F982370
:100EF00029F0912F909589238093E30380916502D7
:100F0000912F982309F44CC1109581238093650299
:100F100047C1002329F091E09C1508F441C107C0A6
:100F2000C1103EC115C0002331F0C11027C1812F6F
:100F30000E94902535C1CC2059F0893309F02DC18C
:100F4000EFEFF7EE23E0E150F0402040E1F723C15E
:100F5000812F0E94892524C1812F869586958370D3
:100F600019F0813061F01CC1002321F08D2D912FEB
:100F7000937002C080E090E00E94182317C1002304
:100F800021F08D2D912F937002C080E090E00E949F
:100F9000F3220CC1602F8D2D0E949A2507C1812F4D
:100FA0008370A9F5011100C14D2D429546954770FA
:100FB000440F440F8D2D8F7090E09C01042E01C0D2
:100FC000220F0A94EAF7D4FE08C08FE090E001C037
:100FD000880F4A95EAF7809501C080E0169516952E
:100FE0001370123069F088F49091E503113019F014
:100FF000822B892302C0922B892B0E943625D4C0D4
:10100000822B9091E5038927F8CF822BF6CF00231E
:1010100019F0812F817001C08695882309F4C4C01E
:101020004D2D429546954770440F440F8D2D8F707E
:1010300090E09C01042E01C0220F0A94EAF7D4FE2E
:1010400008C08FE090E001C0880F4A95EAF78095CC
:1010500001C080E0169516951370123059F078F49F
:1010600090910204113019F0822B892309C0922B30
:10107000892B06C0822B90910204892701C0822B04
:101080000E94F52491C01F70002339F0812F0E9427
:101090002A258D2D0E94902587C08D2D0E9489259F
:1010A000812F0E941D2580C08D2D92EFA91671F110
:1010B0009A1538F0E0EFAE1659F0F1EFAF1609F1DE
:1010C00059C023EFA21649F194EFA916B1F052C00E
:1010D000002371F0C11064C01F7181E090E0012E07
:1010E00001C0880F0A94EAF790910204892720C072
:1010F000E1E0EC1508F454C0EFCF8091310382FD9C
:101100001AC0002329F0812F8F7127C00023D9F343
:10111000812F8F710E941D2543C0002341F01F7154
:1011200081E0012E01C0880F0A94EAF701C080E037
:101130000E94F52435C0002399F01F71812F0E9471
:101140002A258091310382FF07C0F8E01F9FC0016C
:10115000112483608093C203812F0E942A2520C01E
:1011600081E00E94A51921E02C15D0F482E00E94B4
:10117000A51916C0002321F0CC2029F28D2D8ECE8A
:10118000CC2031F2893349F48FEF97EEE3E08150C0
:101190009040E040E1F700C000008D2D0E947226D3
:1011A00088EF890D843010F40E943D23BB20A9F004
:1011B0008091C20380FD11C0F70115828695869546
:1011C00086950E942A25C7010E94EC048091C203E3
:1011D0008695869586950E941D2520E0F701408121
:1011E000518162817381848195810E94DF030FC0E8
:1011F0008091C203877059F0F7018581882339F007
:101200008091310382FF03C082E00E94A519A0965D
:10121000EBE00C94472E80E290E0909310018093D5
:101220000F018091640281110EC00E941F2D81E088
:10123000809364022FEF83ED90E321508040904033
:10124000E1F700C0000060E570E080E40E94252D19
:101250009093100180930F01892B09F04EC060E537
:1012600070E080E00E94982D9093100180930F0110
:10127000892B09F042C060E570E080E00E94982D63
:101280009093100180930F01892BB9F560E570E010
:101290008FE30E94982D9093100180930F01892B6A
:1012A00061F50E940C2E60E570E080E40E94252D1F
:1012B0009093100180930F01892BF9F460E570E0A1
:1012C0008CE00E94982D9093100180930F01892B40
:1012D000A1F460E570E080E00E94982D90931001E9
:1012E00080930F01892B49F460E570E08FE30E9441
:1012F000982D9093100180930F010E940C2E8091E5
:101300000F010895CF93DF9356985E9825982D98F6
:1013100026982E9827982F98C8E8D0E08FEF90E075
:1013200099838883AAE8B0E011969C938E93ECE8A9
:10133000F0E091838083259A2D9A2FEF80E792E049
:10134000215080409040E1F700C00000269A2E9A7C
:101350002FEF80E792E0215080409040E1F700C0FD
:101360000000279A2F9A2FEF80E792E021508040CB
:101370009040E1F700C0000025982D982FEF80E7FE
:1013800092E0215080409040E1F700C00000269894
:101390002E982FEF80E792E0215080409040E1F7B7
:1013A00000C0000027982F988091F00387702FEFDE
:1013B000829FC001112495958795959587959927CA
:1013C0009983888311969C938E93918380835698FA
:1013D0005E9825982D9826982E9827982F98DF911B
:1013E000CF910895CF93E82F873080F580910F013A
:1013F00090911001892B09F047C0CE2F60E570E075
:1014000080E40E94252D9093100180930F01892B79
:10141000D1F460E570E082E10E94982D9093100174
:1014200080930F01892B79F481E090E001C0880F4F
:10143000CA95EAF760E570E080950E94982D909338
:10144000100180930F010E940C2E1EC090E0FC0141
:101450003797E730F105C0F4E258FF4F0C94D02ED7
:10146000209A289811C0219A29980EC0229A2A9869
:101470000BC0239A2B9808C0529A5A9805C0539AC9
:101480005B9802C03E9A4698CF910895209828987C
:101490002198299822982A9823982B9852985A98FC
:1014A00053985B983E9846980895CF93873040F5BF
:1014B00080910F0190911001892B59F560E570E042
:1014C00081E40E94252D9093100180930F01892BB8
:1014D00011F0C0E011C080E590E00E94C72D97FF99
:1014E00005C09093100180930F01F3CFC82FC095D2
:1014F0001092100110920F010E940C2E8C2F0AC026
:101500009FB18FB1807F869586959370892B80954A
:1015100001C080E0CF9108958098889A8198899A37
:1015200084988C9A85988D9A86988E9A87988F9AA7
:101530000895E42FF0E0EE0FFF1FEF52FE4F908171
:10154000921B97FD9195292F38E1239F212D11247E
:10155000620F08952091C20530E1230F08F42FEFA8
:1015600060E1822F90E00E94262ABC0188EB9BE07C
:101570000E94102E80E090E008950F931F93CF9368
:10158000DF93D62F072F182FC42F822F0E94962962
:10159000EC2FF0E0EE0FFF1FEF52FE4F90819058BE
:1015A000890F87FD8195880F682F2CE0629F612D40
:1015B00011246D0F702F812FDF91CF911F910F910B
:1015C00008950E94852008950E9428200895A4E08F
:1015D000B0E0EDEEFAE00C94252E782E8091120109
:1015E00087110DC02091BE05237030E0409111019C
:1015F00050E081E02417350719F480E001C081E054
:101600008170809317018091C305909116019817FE
:1016100039F08093160140E060E080E00E94E10A2A
:10162000EFE07E125DC086E498E20E94AE2B8A83D2
:1016300042C0F71508F49AC123E0721609F459C0A4
:10164000271508F4F7C031E0731609F497C0371571
:1016500008F0B6C080911501382F330F330F380FC3
:10166000398375E0F72EF30E80E38F1510F460E3F5
:10167000F62E1091C0059091C1059A830091BF0587
:10168000B801892F0E94302AE62ED72EC82E6091ED
:10169000C205600F712F8A810E94302A6A83172F3A
:1016A000082F29812F1508F4ABC031E03A838FE26F
:1016B0008F1508F48EC0809115018F5F80931501FE
:1016C0009A81911112C582E08093180180911701CF
:1016D00081110BC5711009C583E08093180105C500
:1016E000E71508F46BC1F7E07F12A3CF85E798E216
:1016F0009CCF80911501982F990F990F980F99837E
:101700009B5F9B83913310F0E0E3EB83E090C00597
:10171000D090C1052091C20550E4F52E3F2D329F97
:10172000312D1124F32EE981FB81EF1708F042C01F
:101730008981082F10E0F801EF5CFD4F90818091C6
:1017400016018923B9F0F801EE0FFF1FEE52FE4F8C
:10175000808182958F706091BF058F9D600D1124EF
:101760007E2D8D2D0E94302A462F282F672FC801ED
:101770000E94E40A99819F5F9983D5CF80911501DA
:10178000282F220F220F280F29832B5F2B83213331
:1017900010F030E33B836091BF057091C0058091EC
:1017A000C1050E94302A162F072FF82EE981FB81F0
:1017B000EF1788F021E02A83F03308F47CCF09C0CA
:1017C00080911701882329F040E060E080E00E94CA
:1017D000E10A1A8270CF8981E82FF0E0DF01AF5C67
:1017E000BD4F8C9190911601982331F02F2D412FF0
:1017F000602FCF010E94E40A99819F5F9983D6CF21
:10180000E9818E2F90E0FC01EF5CFD4F308120914B
:101810001601232359F030FF04C0202F4A81612F85
:1018200003C02C2D4E2D6D2D0E94E40AF981FF5F1F
:10183000F98337CF85E078124AC080911501382F9F
:10184000330F330F380F39833B5F3B83313310F055
:1018500080E38B830091BF051091C005F090C10516
:101860006091C2056695669566958091B6059091E2
:10187000B7050E94262A0E949629805887FD8195E7
:10188000880F282F3F2D239F212D1124822FB8014F
:101890000E94302A162F072FF82EE981FB81EF17BF
:1018A00008F088CF8981E82FF0E0DF01AF5CBD4F01
:1018B0008C9190911601982331F02F2D412F602F9C
:1018C000CF010E94E40A99819F5F9983E6CF871533
:1018D00008F449C080911501382F330F330F380FAA
:1018E00039833B5F3B83313310F080E38B83E0909F
:1018F000C005D090C1052091C20530E4F32E3F2DE4
:10190000329F312D1124F32EE981FB81EF1708F06E
:1019100051CF8981082F10E0F801EF5CFD4F9081D5
:10192000809116018923D9F0F801EE0FFF1FEF52C5
:10193000FE4F6081F69EB001112495E07595679584
:101940009A95E1F78091BF05680F7E2D8D2D0E943D
:10195000302A462F282F672FC8010E94E40A998158
:101960009F5F9983D1CF81EA98E25FCE9BE07912A5
:1019700008C084E299E202C080E499E20E944D2C02
:1019800056CE971568F0E9E07E1205C08BE599E226
:101990000E94C92C4CCEE71578F389E799E2F8CF7D
:1019A000FDE07F1203C08AE698E23FCEF71518F0FB
:1019B00083E798E23ACE81E698E237CE27E17212C9
:1019C0008DC080911501382F330F330F380F3983B5
:1019D000132F1B5F113308F010E380911701811161
:1019E00021C06091C20520E1620F08F46FEF809181
:1019F000B6059091B7050E94262A6AE070E00E9421
:101A0000102E892B41F50E94B72990E3899F900100
:101A1000112460911601832F932F990F990B0E9427
:101A2000862319C0F981EF2FF0E0FC83EB83E12ED0
:101A3000F12C8B819C818E159F056CF460911601B1
:101A40008B819C810E9486232B813C812F5F3F4F9D
:101A50003C832B83EECF91E09A833CC0E71508F4DA
:101A6000D2C0F9E17F1609F467C0F71508F4C8C0C1
:101A700080911501E82FEE0FEE0FE80FE9831E2F7E
:101A80001B5F113308F010E38091170181119FC093
:101A90006091C20520E1620F08F46FEF8091B605F6
:101AA0009091B7050E94262A65E070E00E94102EF2
:101AB000892B71F40E94B729F0E38F9F90011124C4
:101AC00060911601832F932F990F990B0E94622327
:101AD000F1E0FA83103308F4EECD7BCE271530F118
:101AE00033E1731203C08FEF98E248CF371570F0DF
:101AF00081E1781203C08DEF99E24ACF871518F083
:101B000087E398E23BCF83E199E242CF95E17912F6
:101B100003C087ED97E204C0971528F089E098E2AA
:101B20000E94F82B84CD89E997E2FACFEBE17E128F
:101B300095CF89E99AE079CD80911501282F220F60
:101B4000220F280F29832B5F2B83213310F030E3E2
:101B50003B830091C0051091C105F090BF056091D5
:101B6000C2056695669566958091B6059091B70514
:101B70000E94262A0E949629805887FD8195880F09
:101B8000682F2CE0629F612D11246F0D702F812F23
:101B90000E94302A162F072FF82EE981FB81EF17BC
:101BA00008F008CE8981E82FF0E0DF01AF5CBD4F7F
:101BB0008C9190911601982331F02F2D412F602F99
:101BC000CF010E94E40A99819F5F9983E6CF398112
:101BD000232F30E03C832B83E12EF12CEB81FC8121
:101BE000EE15FF050CF074CF609116018B819C817E
:101BF0000E9462238B819C8101969C838B83EECF14
:101C00008DEB9AE012CD2DE17212EEC04091FA02F6
:101C10005091FB026091FC027091FD028091B6052B
:101C20009091B705A091B805B091B90584179507B3
:101C3000A607B70708F4CDCD8091170181110EC01A
:101C400080911501382F330F330F380F3983032F4D
:101C50000B5F013308F45AC000E358C040E060E075
:101C600080E00E94E10A0AE612E01C821B820E94C8
:101C7000B72981FF05C0F80110821182128220C0AD
:101C80000E94B729D82E0E94B729F0E88F9FC00183
:101C900011247FE7790F8B819C81880F991F2B81FD
:101CA0003C81820F931FFC01E659FD4F7F016D2D92
:101CB0008091C1050E94302AF7016083718382837D
:101CC0002B813C812F5F3F4F3C832B830D5F1F4F48
:101CD0002033310561F6B4CF3981832F90E0FC01C8
:101CE000EF5CFD4F308120911601232361F0FC0150
:101CF000EE0FFF1FE80FF91FE659FD4F22814081CB
:101D000061810E94E40A89818F5F8983998190179C
:101D100018F3E1E0EA83003308F01A82003308F494
:101D2000CACC20E010E001501109822F90E080170A
:101D30009107CCF4AC01440F551F480F591F465969
:101D40005D4F0196FC01EE0FFF1F8E0F9F1FFC01E0
:101D5000E659FD4F80819181A281FA0180839183B0
:101D6000A2832F5FE2CF0E94B7297801EE0CFF1CFF
:101D700081FF09C00E0D1F1DF801E659FD4F1082AD
:101D80001182128218C00E94B72989830E94B72944
:101D9000F0E88F9FC00111247FE7790F0E0D1F1D02
:101DA00006591D4F69818091C1050E94302AF801B2
:101DB0006083718382830E94AA0A0091B605109104
:101DC000B7052091B8053091B905DC01CB01800F32
:101DD000911FA21FB31F8093FA029093FB02A0935E
:101DE000FC02B093FD0267CC721608F07AC08091B5
:101DF0001501982F990F990F890F8B5F8B83409155
:101E0000B6055091B7056091B8057091B9058091FC
:101E1000660290916702A0916802B09169028417EE
:101E20009507A607B70708F055C00E94B72930E309
:101E3000839FC0011124092F112707FD1A95F8016E
:101E4000EF5CFD4F808190911601982309F442C008
:101E50000E94B72981FD0EC00E94B72989830E9484
:101E6000B729E0E88E9FC00111247FE7790F8091A8
:101E7000C10503C080E070E0198269810E94302AA8
:101E8000462F282F672FC8010E94E40A2091C2051F
:101E900030E1230F08F42FEF60E1822F90E00E94E1
:101EA000262ABC0184EF91E00E94102E8091B60595
:101EB0009091B705A091B805B091B905860F971F0D
:101EC000A11DB11D8093660290936702A0936802E2
:101ED000B0936902F1E0FA832B81203308F4EBCB55
:101EE00078CC3EE17312C7C080911701882329F096
:101EF00040E060E080E00E94E10A80911501982FA7
:101F0000990F990F890F8B5F89834091B605509186
:101F1000B7056091B8057091B9058091280390913B
:101F20002903A0912A03B0912B0384179507A607D4
:101F3000B70708F099C06091BF057091C005809106
:101F4000C1050E94302A662E572E482E0EEF12E051
:101F50002DE731E03C832B8341ED842E41E0942E2C
:101F6000AB80BC806501780132E0332EF7018081BF
:101F7000F601882369F08081242D462D652D90E09F
:101F80000E94E40AF5018581242D462D652D0CC0A3
:101F9000808120E040E060E090E00E94E40AF501EA
:101FA000858120E040E060E090E00E94E40AF701D3
:101FB000818181937F013A94FFEFCF1ADF0A21E0FC
:101FC000A21AB1083110D2CFF8018281EB81FC81D5
:101FD000882371F08281242D462D652D90E00E948A
:101FE000E40AEB81FC818381242D462D652D0DC0F3
:101FF000828120E040E060E090E00E94E40AEB8112
:10200000FC81838120E040E060E090E00E94E40AEF
:102010000E94B729837091E009F090E0F801928363
:102020000D5F1F4F2B813C812A5F3F4F3C832B83E9
:102030008216930609F094CF0E94AA0A0091B60571
:102040001091B7052091B8053091B905DC01CB019D
:10205000800F911FA21FB31F809328039093290321
:10206000A0932A03B0932B0331E03A838981803314
:1020700008F421CBAECB8FEF781231C08091B6053A
:102080009091B705A091B805B091B90588279C70CB
:10209000AA27BB272AE0B695A795979587952A95F5
:1020A000D1F782309105A105B10571F0833091051A
:1020B000A105B10569F040E00197A105B10511F056
:1020C00060E008C064E102C044E160E080E003C079
:1020D00044E164E184E10E94E10A82E0FECA809169
:1020E00015018F5F80931501EECA2496E1E10C94EF
:1020F000412EEEEBF5E085E380838091190190910C
:102100001A01A0911B0181839283A3838FE78483AB
:102110008FEF858348E050E068E170E0CF010E94D6
:10212000882E1092BD0508958091590387FF11C034
:102130008091E80082FD05C08091BC058111F8CF37
:1021400011C08091E8008B770BC08091BC0588237B
:1021500049F08091E80080FFF8CF8091E8008E7709
:102160008093E8000895982F973068F59093E900E0
:10217000981739F07091EC002091ED005091F0002B
:1021800003C0242F762F50E021FD02C09F5FECCFCB
:102190003091EB003E7F3093EB003091ED003D7FBE
:1021A0003093ED003091EB0031603093EB00709391
:1021B000EC002093ED005093F0002091EE0027FDFD
:1021C000E5CF80E008958F708093E90081E0089565
:1021D00020915F03309160032617370748F061159F
:1021E000710539F42091E8002E772093E80001C0B2
:1021F000B901FC0120E06115710579F18091BC0500
:102200008823F1F18530F1F18091E80083FD3CC035
:102210008091E80082FD2EC08091E80080FFEBCF26
:102220002091F3008091F20090E0922B61157105EE
:1022300051F08830910538F421912093F1006150DC
:1022400071090196F3CF21E0089709F020E0809111
:10225000E8008E778093E800CECF2111CFCF0AC05F
:102260008091BC05882361F0853061F08091E800A1
:1022700083FD0AC08091E80082FFF2CF80E00895DC
:1022800082E0089583E0089581E008958091350308
:1022900008959B019091BC059430F1F48F70809368
:1022A000E9008FEF9091E800815095FD06C095ED13
:1022B0009A95F1F700008111F5CF8091E80085FF34
:1022C0000BC0BA01C90140E050E00E945B2B809135
:1022D000E8008E778093E800089543E050E0BC0169
:1022E00085E00E944911089545E050E0BC0182E07C
:1022F0000E9449110895CF93DF93EC01809106016C
:10230000811105C048E050E0BE0181E00BC0809122
:10231000300387FF03C040E285E002C048E081E06F
:1023200050E0BE010E94491180E2FE01A6E3B3E045
:1023300001900D928A95E1F7DF91CF910895AAE27D
:10234000B0E0E5EAF1E10C94332EE9E5F3E081E653
:1023500093E02091F10021938E179F07D1F7809190
:102360005A03833009F463C030F4813071F0823055
:1023700009F49FC0B6C08A3009F48BC08B3009F4D1
:102380006EC0893009F0ADC020C080915903813AF8
:1023900009F0A7C08091E800877F8093E8008091D2
:1023A0005D0390915E03892B21F460E286E393E064
:1023B00003C060E080E090E070E00E94E81080914F
:1023C000E8008B778093E8008CC0809159038132BC
:1023D00009F087C080915D0390915E03009719F02A
:1023E000039709F07EC08091E800877F8093E80022
:1023F0008091E80082FD05C08091BC058111F8CF75
:1024000070C02091F3008091F20090E0922B02972F
:1024100031F48091F100813011F0863021F4809107
:10242000F100809335038091E8008B7756C080914E
:102430005903813A09F055C080915D0390915E0384
:10244000892B09F04EC08091E800877F8093E800D7
:102450008091E80080FFFCCF8091060139C0809117
:1024600059038132F1F580915D0390915E03892BD0
:10247000C1F58091E800877F8093E8000E94941066
:1024800080915B0380930601109233030E945C25C8
:1024900028C080915903813221F58091E800877F1F
:1024A0008093E8000E94941080915C038093340331
:1024B00018C080915903813AA1F48091E800877F88
:1024C0008093E8008091E80080FFFCCF8091340386
:1024D0008093F1008091E8008E778093E8000E945D
:1024E00094108091E80083FFE4C18091590390919A
:1024F0005A03492F50E04A30510508F0DAC1FA0179
:10250000EB57FF4F0C94D02E803821F0823809F021
:10251000D0C108C08091560390915703992389F048
:1025200082600FC080915D038F70873008F0C1C159
:102530008093E9008091EB0085FB882780F9109259
:10254000E9009091E800977F9093E8008093F10074
:102550001092F10070C1282F2D7F09F0AAC18823A5
:1025600019F0823061F0A5C180915B03813009F0E0
:10257000A0C1933009F080E0809357032EC0809172
:102580005B0381112AC080915D038F702FEF280FAC
:10259000263008F08EC18093E9002091EB0020FFE7
:1025A0001CC0933021F48091EB00806214C09091A4
:1025B000EB0090619093EB0021E030E0A90102C0B4
:1025C000440F551F8A95E2F74093EA001092EA0003
:1025D0008091EB0088608093EB001092E90080917D
:1025E000E800877F8093E8000E94941062C1811107
:1025F00060C110915B031F778091E3008078812B8D
:102600008093E3008091E800877F8093E8000E9438
:1026100094108091E80080FFFCCF8091E3008068F7
:102620008093E300111102C082E001C083E0809337
:10263000BC053FC18058823008F03BC120915B034C
:1026400030915C032C3D53E0350779F583E08A83B4
:102650008AE289834FB7F894DE01139620E03EE0CA
:1026600051E2E32FF0E050935700E49120FF03C0C4
:10267000E295EF703F5FEF708E2F90E0EA3010F040
:10268000C79601C0C0968D939D932F5F243149F763
:102690004FBF8091E800877F8093E8006AE270E096
:1026A000CE0101960E94E810B4C080915D03909124
:1026B0005E03432F552743305105A9F068F441309C
:1026C000510509F405C14230510509F0F2C084E713
:1026D00090E0EAE4F2E04BC04132510529F1423288
:1026E000510589F1E6C0C901992781309105A1F012
:1026F00058F0029709F0DDC0E0EDF2E0E4918E2F92
:1027000090E0E0EDF2E030C0ECE1F3E0E4918E2FF8
:1027100090E0ECE1F3E028C0E2EFF2E0E4918E2FEC
:1027200090E0E2EFF2E020C08430910508F0C1C0F3
:10273000880F991FFC01E85DFE4F0190F081E02DAC
:1027400089E090E014C08430910508F0B2C0FC012B
:10275000EE0FFF1FE05EFE4F0190F081E02DDC01E7
:10276000A45EBE4F8C9190E0009709F4A2C0209126
:10277000E800277F2093E80020915F0330916003F9
:102780002817390708F4C90140E0009789F1209122
:10279000BC05222309F43DC02530D9F12091E80081
:1027A00023FD37C02091E80022FD2FC02091E800D2
:1027B00020FFEBCF4091F3002091F20030E0342B6A
:1027C000009759F02830310540F444914093F100CE
:1027D000319601972F5F3F4FF3CF41E0283031050D
:1027E00009F040E02091E8002E772093E800CDCF5B
:1027F0004111CDCF0AC08091BC05882351F08530AE
:1028000041F08091E80083FD04C08091E80082FFE0
:10281000F2CF8091E8008B778093E8004AC080383F
:1028200009F047C08091E800877F8093E80080919D
:1028300058038093F1008091E8008E77D3CE811108
:1028400038C080915B0390915C03992702978CF5C7
:102850008091E800877F8093E80010915B031093DC
:1028600058030E949410111106C08091E30087FD67
:1028700002C081E001C084E08093BC0542E061ECCD
:1028800081E00E94B31042E061EC82E00E94B3104C
:1028900042E261EC85E00E94B31042E261EC83E029
:1028A0000E94B31042E260EC84E00E94B310809179
:1028B000BC058091E80083FF10C08091E800877F0D
:1028C0008093E8008091EB0080628093EB0005C06C
:1028D00082E190E0EEEBF2E04ACFAA96E3E00C94BE
:1028E0004F2E1F920F920FB60F9211242F933F93EA
:1028F0004F935F936F937F938F939F93AF93BF9308
:10290000CF93DF93EF93FF93C091E900CF70809155
:10291000EC00D82FD17080FDD0E81092E9008091B2
:10292000F000877F8093F00078940E949F111092AE
:10293000E9008091F00088608093F000CD2BCF708B
:10294000C093E900FF91EF91DF91CF91BF91AF91DB
:102950009F918F917F916F915F914F913F912F91B7
:102960000F900FBE0F901F901895E8EDF0E080815A
:102970008E7F80831092E2001092DA001092E100C4
:10298000A0EEB0E08C9181608C9380818F77808302
:1029900019BCA7EDB0E08C918E7F8C9380818F7EE7
:1029A0008083109232030895A0E0B0E0EAEDF4E1F4
:1029B0000C942E2EC8EDD0E088818F7E8883E7EDC1
:1029C000F0E080818160808384E082BF81E0809339
:1029D000320388818E7F888302EE10E0F801108236
:1029E0001092DA0081EEC82ED12CF6011082888177
:1029F0008F77888388818068888388818F7D8883AA
:102A000019BC1092BC0510925803109257031092F3
:102A1000560390EEE92EF12CF70180818B7F8083A5
:102A200088818160888342E060E080E00E94B3108A
:102A3000F60180818E7F8083F801808181608083B0
:102A4000808188608083F70180818E7F8083888188
:102A500080618883CDB7DEB7E8E00C944A2E1F92E0
:102A60000F920FB60F9211242F933F934F935F93C2
:102A70006F937F938F939F93AF93BF93EF93FF9346
:102A80008091E10082FF09C08091E20082FF05C0D1
:102A90008091E1008B7F8093E1008091DA0080FFDC
:102AA0002AC08091D80080FF26C08091DA008E7FF6
:102AB0008093DA008091D90080FF18C080E189BD41
:102AC00082E189BD09B400FEFDCF81E08093BC05A1
:102AD0008091320381110FC00E94B5140E94D4145A
:102AE0008091E20084608093E20005C019BC1092DE
:102AF000BC05109232038091E10080FF17C08091E5
:102B0000E20080FF13C08091E2008E7F8093E2009C
:102B10008091E20080618093E2008091D800806221
:102B20008093D80019BC85E08093BC058091E100BA
:102B300084FF30C08091E20084FF2CC080E189BD19
:102B400082E189BD09B400FEFDCF8091D8008F7D60
:102B50008093D8008091E1008F7E8093E100809186
:102B6000E2008F7E8093E2008091E200816080939A
:102B7000E20080915803882311F084E007C080911F
:102B8000E30087FD02C081E001C083E08093BC05C3
:102B90008091BC058091E10083FF27C08091E20015
:102BA00083FF23C08091E100877F8093E10082E072
:102BB0008093BC05109258038091E1008E7F809332
:102BC000E1008091E2008E7F8093E2008091E2003C
:102BD00080618093E20042E060E080E00E94B310F8
:102BE0008091F00088608093F000FF91EF91BF9199
:102BF000AF919F918F917F916F915F914F913F9195
:102C00002F910F900FBE0F901F9018952091E40008
:102C10003091E50095E64091EC00842F817040FFF3
:102C200023C08091E80080FD1DC08091BC058823F1
:102C300099F0853099F08091EB0085FD11C04091AD
:102C4000E4005091E5002417350729F3915011F065
:102C50009A01E1CF84E0089582E0089583E0089529
:102C600081E0089580E008954091E80042FFDDCFC3
:102C7000089578941F920F920FB60F9211248F939C
:102C80009F93AF93BF9380912C0390912D03A091BC
:102C90002E03B0912F030196A11DB11D80932C032B
:102CA00090932D03A0932E03B0932F03BF91AF9168
:102CB0009F918F910F900FBE0F901F9018959C01C0
:102CC0004FB7F89480912C0390912D03A0912E037F
:102CD000B0912F034FBF821B930B08952FB7F89429
:102CE00060912C0370912D0380912E0390912F03FE
:102CF0002FBF08952FB7F89480912C0390912D0346
:102D0000A0912E03B0912F032FBF089580E0089566
:102D10009091300392FF10C041E0282F247124309D
:102D200009F040E031E0282F2871283009F030E028
:102D3000431711F02CE0822793FF10C041E0282FA9
:102D40002471243109F040E031E0282F2871283126
:102D500009F030E0431711F02CE082273091310365
:102D600030FF10C051E0282F2171213009F050E0D0
:102D700041E0282F2871283009F040E0541711F065
:102D800029E0822731FF10C041E0282F2171213135
:102D900009F040E031E0282F2871283109F030E0B7
:102DA000431711F029E0822794FD877E0895823829
:102DB000910569F1B0F48133910509F475C048F4C7
:102DC0008932910509F467C08A32910509F471C00E
:102DD00008958533910509F459C089339105B9F0F7
:102DE0000895833E910589F138F4803E9105D1F034
:102DF000823E910529F10895863E9105C9F1873EED
:102E00009105D9F1843E910509F06CC027C020914D
:102E1000300320FD57C021FD55C02091310323FD13
:102E20005BC008958091300380FD48C080913103DC
:102E300080FF48C08091300384FD46C083EE51C0BE
:102E40008091300382FF3CC0F5CF8091300382FD3A
:102E500037C08091310380FD35C0ECCF80913103C4
:102E600081FF36C08091300384FD2EC087EE39C0CB
:102E70008091300383FF2AC0F5CF8091300383FD1A
:102E800025C08091310381FD23C0ECCF80913003B8
:102E900085FD22C01FC08091300385FD1BC080913D
:102EA000310383FF19C00AC08091300386FD16C02C
:102EB00017C08091300386FD13C010C089E311C094
:102EC00082EE0FC080EE0DC080E00BC086EE09C020
:102ED00084EE07C085E305C089E203C08AE201C031
:102EE00081E390E008952091C1039091880357E019
:102EF0002917A9F030E0529FF001539FF00D1124E3
:102F0000E757FC4F7181761306C07081781303C0B8
:102F10007581741306C02F5F3F4F2770E9CF80E0A3
:102F2000089581E008957E30B0F46630A0F48430D6
:102F3000A0F494E5899FF001112486E0789FE00DCC
:102F4000F11D1124E60FF11DEE0FFF1FE05EFC4F97
:102F500085919491089580E001C081E090E008950A
:102F60001F93CF93DF930E94D716EC01C11580E524
:102F7000D807E8F5C11590E4D90708F0A8C0C03E0D
:102F8000D10530F5CD3CD10508F094C0C83AD10543
:102F900078F4C53AD10508F083C0C130D10509F4F1
:102FA0007CC008F4F2C0C430D10508F0F1C0EDC017
:102FB000C33CD10508F0E9C0C85AD0E0CC0FDD1FF2
:102FC000CD5CDE4F0990D881C02DCE019464E1C064
:102FD000C11580E2D80708F0CBC0C11591E0D90730
:102FE00008F06BC0C83ED10508F4D2C0CEC0C036D0
:102FF00082E5D80728F5C03492E5D90708F079C0F2
:10300000C03282E5D80708F06CC0C11592E5D90737
:1030100008F481C04C2F4695469580E2489FA00158
:103020001124C37021E030E0C90102C0880F991F4C
:10303000CA95E2F7EA01C82BD92BCE019D68A9C039
:10304000C03A82E5D807B8F48C2F8F71C03892E56A
:10305000D90708F07BC08695869590E2899F9001FC
:103060001124C37081E090E002C0880F991FCA95B7
:10307000E2F79A6868C0C03C82E5D80708F46DC0E2
:10308000C03E92E5D90708F080C0CF71DD27DC2F64
:10309000CC27CE01806F906A7CC081E090E079C03F
:1030A000C55AD0E0C05DDE4F8881C82FD0E0CE0188
:1030B00090646FC0CE0190656CC08D2F0E94881601
:1030C000182FCE0199270E94D7161F715CC0CE0120
:1030D00099270E94D716CC27DF70D06A8C2B9D2BA6
:1030E00058C0CF71D0E0DC2FCC27CE01816F906A21
:1030F00050C08C2F8F718695869590E2899F9001A4
:103100001124C37081E090E002C0880F991FCA9516
:10311000E2F79C6818C08C2F8F710E94881695E08A
:10312000D695C7959A95E1F7CF70D0E0DC2FCC27E4
:10313000282F30E084FF05C084E0220F331F8A95DA
:10314000E1F7D069CE01822B932B23C090E0D82FDA
:10315000CC27CE01846F906A1CC08C2F8F710E9487
:1031600088168F7190E0D82FCC27CE01906211C0C5
:103170008D2F8F710E948816182FCE0199270E94DB
:10318000D7161F719062912B04C080E090E001C0BF
:10319000CE01DF91CF911F910895A8E0B0E0E3ED5B
:1031A000F8E10C94342E66EE7EEF80E090E00E9411
:1031B000B62E60E082E090E00E94982E60E083E00E
:1031C00090E00E94982E1092E50360E074E184E0A4
:1031D00090E00E94B62E60E086E090E00E94982E7B
:1031E0006FEF87E090E00E94982E40E050E0BA0137
:1031F00088E090E00E94AA2E60E084E290E00E94C5
:10320000982E60E087E190E00E94982E60E08CE0CC
:1032100090E00E94982E60E08DE090E00E94982E51
:1032200019821A821B821C821D821E821F821886AE
:1032300048E050E068E170E0CE0101960E94882EDF
:1032400040E050E0BA0180E290E00E94AA2E109285
:10325000F0031092F1031092F2031092F30384E052
:103260008093F0034091F0035091F1036091F203D9
:103270007091F3038FE090E00E94AA2E40E050E0AE
:10328000BA0183E190E00E94AA2E2896E2E00C9415
:10329000502E8095909133038923809333030895B2
:1032A000909133038091E403982B90936103809174
:1032B000E3038823D9F0892B809361038091060171
:1032C000882331F08091300387FF02C08EE101C076
:1032D00086E0E3E6F3E090E0815028F0219122239C
:1032E000D9F39F5FF9CF91111092E30340E250E0D0
:1032F00063EC73E081E693E00E94F72F892B21F1C4
:1033000080E2E1E6F3E0A3ECB3E001900D928A9550
:10331000E1F7E0918405F09185053097A9F080915F
:103320000601882359F08091300387FF07C0809100
:1033300061038093620386E0809361030280F381DE
:10334000E02D81E693E0099508959091C203809560
:1033500089238093C203282F277069F4981759F0A6
:103360009091310392FF07C08695869586950E94BD
:103370001D251092C20308959091310392FB2227DC
:1033800020F9281779F080FB92F99093310360912E
:1033900030037091310384E090E00E94B62E82E009
:1033A0000E94A51908958091C103909188038917FF
:1033B00019F08F5F8770FBCF0895CF93DF938091D3
:1033C000870382958F7009F04EC080918603882311
:1033D00009F449C08091C103409188035091820350
:1033E00060918103C0918303D091840377E08417B7
:1033F000D1F190E0789FF001799FF00D1124DF0169
:10340000A757BC4F14962C911497222349F111967B
:103410002C911197251324C02C91261321C01596A9
:103420002C91159721111CC012962D913C91139748
:103430002C1B3D0B283C310598F4809187038F703D
:10344000806180938703E157FC4F80818F7080619A
:10345000808381E893E00E94EC040E94D31903C0AA
:1034600001968770C4CFDF91CF910895A4E1B0E0B9
:10347000ECE3FAE10C942A2E8C0186E0F801DE01DF
:103480001F9601900D928A95E1F7F8018481E580FD
:1034900091E8892E93E0992E90918503911120C097
:1034A000882309F463C1EE2009F442C0C8010E94D8
:1034B0003925F82E8823E1F187E0F801D401019045
:1034C0000D928A95E1F780918503813031F48091E6
:1034D0008103909182030E947F240E94DD1948C1DC
:1034E000F801D080C180A280B380F0908603209143
:1034F000830330918403FF2009F4E7C0A501421B38
:10350000530B483C510508F09DC0882309F430C195
:1035100080918703282F207F90918203222361F0DE
:103520009C1509F460C0C8010E943925811163C04F
:10353000C8010E94EC041AC19C1113C09091810330
:103540009D110FC0E1100DC08F70806180938703C3
:1035500081E893E00E94EC0480918703F801868360
:1035600003C1E1103AC040E06C2D8D2D0E9473170D
:1035700040E06C2D8D2D0E947317E82E8111F4C050
:10358000DF86C88A8F8598890E947F24292F2295FB
:103590002F70243020F49F70223028F009C02A5068
:1035A000223080F014C0992349F0811107C013C064
:1035B000992321F0F8019681907F69F0805E883030
:1035C00030F409C0803F38F0815F833020F0C801BB
:1035D0000E94EC04EF2CFE2CCBC08091870381600D
:1035E00080938703C1C0909181039D119CCFE1100E
:1035F0009ACFF80198C0EE2009F49ACF2091870362
:10360000822F82958F7090E002978CF080918103D9
:103610009091820399878887BB86AA8680918503CB
:103620008C871D862E87CE0108960E94EC0487E0C9
:10363000F801A1E8B3E001900D928A95E1F70E94AC
:10364000DD1994C090918703292F207F51F481E8E0
:1036500093E00E94EC0487E0F40111928A95E9F767
:1036600083C0882309F484C0809182038C110CC02C
:10367000809181038D1108C0E11006C0F801968386
:10368000C8010E94EC046AC0C8010E943925882341
:1036900009F44ECFEE2009F44BCF20918703822FFF
:1036A00082958F7090E0029714F28091810390913F
:1036B00082039A838983BC82AB82809185038D8348
:1036C0001E822F83CE010196B0CFA21AB30AF8EC66
:1036D000AF16B10408F042C0882309F447C0FE2C9D
:1036E000EE2009F425CF809182038C1129C08091AE
:1036F00081038D1125C09091870390FD18C0892FFB
:1037000082958F70282F30E02115310581F0F80166
:1037100096832F30310541F08F5F982F9295907FDF
:1037200086818F70892B8683C8010E94EC0487E014
:10373000F801A1E8B3E001900D928A95E1F718C075
:10374000C8010E943925811172CF80918703816061
:1037500080938703C8010E94EC040AC087E0F4014B
:1037600011928A95E9F704C0F12C02C0FF24F3946A
:103770008F2D6496ECE00C94462EA0E0B0E0E3ECD4
:10378000FBE10C942E2E80910F0190911001892B5A
:10379000A1F08091E8038F5F8093E80381110DC051
:1037A0000E940B0990E09093100180930F01892BE8
:1037B00021F40E9482090E94C42304EF13E07801DF
:1037C000D0E0C0E087E0C82ECC0E8C2F0E94F2091A
:1037D0008C2D0E94F2098C2F0E94550A8F73F701DD
:1037E0009081891721F08083DD24D39401C0D12CEE
:1037F0008C2D0E94550A8F73F7019781891719F054
:10380000878381E001C080E0D82ADD290E94460A32
:10381000CF5FFFEFEF1AFF0AC730A1F61092ED035A
:10382000C091EC03CC2309F47DC00E947A1620914C
:10383000EA033091EB03AC01421B530B9A019093C6
:10384000EB038093EA034F3F510509F018F4452B31
:1038500019F102C02FEF30E01092EC031092E9034F
:10386000E091EE03F091EF03AF01425F5F4F90E014
:1038700030E08081882341F0281718F010829C2FB7
:1038800003C0821B80833C2F3196E417F50789F72C
:103890003093EC039093E903DD23B1F11092E90337
:1038A000E091EE03F091EF038091ED039091EC0332
:1038B000A3E0B4E0AF01425F5F4F6EE1E801288111
:1038C0003C91321779F0308131110CC060832C9318
:1038D00098819227282F30E0292B81E0232B09F4AF
:1038E00080E091E0319611960F5F1F4FE417F507C6
:1038F00029F78093ED039093EC038091ED03CDB70E
:10390000DEB7E8E00C944A2E81E09091E903992318
:10391000A1F38111C3CF0E947A169093EB03809399
:10392000EA03BCCFD111F7CF80E0EFCFA6E0B0E043
:10393000ECE9FCE10C94322E0E947A168C01809105
:10394000E6039091E7030817190781F019821A829C
:103950000E947A16682F49815A81792F80E090E081
:103960000E941C041093E7030093E6032696E4E00C
:103970000C944E2EA6E4B0E0E0ECFCE10C94282E72
:1039800085B7806885BF85B7806885BF84B7877F26
:1039900084BF0FB6F894A8958091600088618093E9
:1039A0006000109260000FBE90E080E80FB6F894BF
:1039B00080936100909361000FBE86E896E190933A
:1039C0006302809362020E94B5140E94D414809115
:1039D000E20084608093E20078948091BC058823A3
:1039E000A1F01091E9001F709091EC00892F817077
:1039F00090FD80E8182B1092E9008091E80083FD8B
:103A00000E949F111F701093E90082E084BD93E033
:103A100095BD9AEF97BD80936E000E940B0990E0D0
:103A20009093100180930F010E94460A0E948C0A15
:103A3000E4EFF3E0A3E0B4E011921D9224E0E23061
:103A4000F207D1F78EE090E00E94D62E8093EE032D
:103A50009093EF03FC010E961192E817F907E1F736
:103A600089EA8093800089E08093810024982C98D3
:103A70003F988AB18F7C8AB96E98479A8BB18063E0
:103A80008BB9769A8FE090E00E947C2E6093F003D1
:103A90007093F1038093F2039093F30367708FEFB9
:103AA000689FB0011124759567957595679577277F
:103AB000709389006093880070938B0060938A00F4
:103AC00070938D0060938C000E94820980E090E0EA
:103AD0000E94822E863E9E4F11F00E94CD1882E0F9
:103AE00090E00E94742E8093110484E090E00E9484
:103AF000822E909331038093300383E090E00E9404
:103B0000742E0E943625809102040E94C2040E94F5
:103B1000C4238091BE05837011F410921801809126
:103B2000BE058C7F81608093BE0587E091E0909315
:103B300085058093840508E110E08091BC058530FF
:103B400009F075C030E4C32E41E1E42E44E0F42EC8
:103B5000BB24B39453E0A52E60E1D62E8091BC0522
:103B6000853009F05CC08091BC05843009F436C012
:103B70000E94E5238091250481110DC00E94E70A6F
:103B8000109212018091BE058370809311010E94F2
:103B90004E21A0921801B0922504109288050FB60C
:103BA000F894A895009360000FBEC092600083B7A0
:103BB000817F846083BF83B7816083BF7894889559
:103BC00083B78E7F83BF0FB6F894A895809160006D
:103BD000886180936000109260000FBE809157034F
:103BE000882309F4BBCF0E940B0990E09093100149
:103BF00080930F010E94460A0E948C0AE3E0F4E0E1
:103C00001192EE16FF06E1F70E94BD1BE3E0F4E01F
:103C100081918111DFC1EE16FF06D1F79FCF10927F
:103C200033030E945C250E943D23109225040E94CC
:103C3000BD1B22E1C22E24E0D22E20E234E0A3E01C
:103C4000B4E0F60191918D9189272E173F0719F065
:103C50008823C1F305C0811103C00E94961C4CC08B
:103C600093E0892E94E0992EF12CF40171904F018C
:103C7000F601A080A724B9F1E12CBB24B3946624FB
:103C800063948A2D8B2141F12296EFAE22972396E1
:103C9000FFAE23970E947A1625969FAF8EAF259789
:103CA00026966FAE269791E0872D8B2109F490E040
:103CB00027969FAF279722964FAD229723965FAD09
:103CC000239724966FAD249725967FAD259726964A
:103CD0008FAD26970E941C04E394BB0CF6E0EF1214
:103CE000D0CFF6017082F394FFEFCF1ADF0A2EE0F7
:103CF000F212BBCF0E946E160E94E523B090B10570
:103D0000C090B205D090B305F090B405E090B50531
:103D10001092B2051092B3051092B4051092B50539
:103D2000C11003C0DD2009F447C08091AF05909118
:103D3000B0050E945F169C019091AA05992309F491
:103D400062C125313105C0F19F3F19F09F5F90930B
:103D5000AA05CC2061F00E94DA2A1C1414F491E028
:103D600001C09FEF899F802D11248093B205DD2033
:103D700061F00E94DA2A1D1414F09FEF01C091E057
:103D8000899F802D11248093B3058091B2058823EB
:103D900099F0A090B305AA2079F00E94FD2A811124
:103DA00001C081E08093B2058A2D0E94FD2A811115
:103DB00001C081E08093B305F11003C0EE2009F447
:103DC00047C08091AD059091AE050E945F169C01A1
:103DD0009091AB05992309F41AC125313105C0F141
:103DE0009F3F19F09F5F9093AB05FF2061F00E9409
:103DF000BA2A1F1414F491E001C09FEF899F802D0F
:103E000011248093B405EE2061F00E94BA2A1E149A
:103E100014F09FEF01C091E0899F802D11248093C1
:103E2000B5058091B405882399F0A090B505AA2026
:103E300079F00E94FD2A811101C081E08093B405D0
:103E40008A2D0E94FD2A811101C081E08093B50571
:103E50008091B1058B111AC08091B205882311F0B1
:103E60008C1114C08091B305882311F0D8120EC0B4
:103E70008091B505882311F0E81208C09091B4052F
:103E8000992331F081E0F91204C002C081E001C041
:103E900080E080FD15C08091B20581110FC0809136
:103EA000B30581110BC08091B405811107C081E079
:103EB0009091B505911103C080E001C081E080FDC3
:103EC0000E940B2BB092B105C092B205D092B305FF
:103ED000F092B405E092B5050E943D239091200434
:103EE000891721F0809320040E946E168091BC05F2
:103EF000843009F022CE8093E9008091E80082FFAF
:103F00001CCE8091E80085FF24C00E940616811116
:103F10001EC080E2E82EF12C6E0181E2C80ED11C99
:103F200009C08091F100F60181936F01F1E0EF1A71
:103F3000F10869F08091E80085FDF3CF8091E800F9
:103F40008B778093E8000E940616882399F391E00E
:103F500001C090E08091E8008B778093E80099237E
:103F600009F4EBCDE9A18E2F90E08930910570F531
:103F7000FC01E157FF4F0C94D02E19828CE0E9E64A
:103F8000F1E0DE01129601900D928A95E1F78EEF35
:103F90008D8707C081E08093BA0584E089838EEF26
:103FA0008A83CE0101960E94852BC7CD8091BA05E8
:103FB000882309F4C2CD80E00E94F5248AA10E94E2
:103FC0002A25BBCD85E003C084E001C08FEF0E94AD
:103FD0004A23B3CDD9BC82E189BD09B400FEFDCF2F
:103FE0008091D8008F7D8093D8008091E00082601E
:103FF0008093E0008091E00081FDFCCF10923303BC
:104000000E945C25ABCD232B09F0A0CED5CE213963
:10401000314008F0E7CE1CCFEEEBF5E0248130E133
:10402000231B08F420E024838091BD0581608093E8
:10403000BD050895EEEBF5E0248130E1230F08F48F
:104040002FEF24838091BD0581608093BD05089585
:10405000A4E0B0E0EEE2F0E20C94312E8033910562
:1040600008F04FC0122F042FF62EBC01660F771FE9
:10407000660F771F60547A4F44E050E0CE010196FE
:104080000E945B2E898183704A8150E0445251091D
:10409000282F30E060E9869FC0011124845C9B4F8B
:1040A000FC01E40FF51FE0817B816C81EF110EC0F4
:1040B000FC01E70FF11DB497E081E01307C0860F04
:1040C000911DFC01B49780818117D9F0E0E9E29F4E
:1040D000C001E39F900D1124845C9B4FFC01E40F11
:1040E000F51FF082FC01E70FF11DB4970083860FE6
:1040F000911DFC01B4971083F901E65CFB4F81E050
:1041000080832496E5E00C944D2EFF920F931F932D
:10411000CF93DF93182F062FF42EC0E0D0E02F2D81
:10412000402F612FCE010E9428202196C033D10557
:10413000B1F7CDB7DEB7E5E00C944D2EE6E2F4E042
:104140006083418323E030E042E050E0BF01880F0C
:104150000E94EB2D0895A0E0B0E0E1EBF0E20C94BA
:104160002F2E262F30E0A90140585A4F7A01FA012C
:104170009081911107C0F7011082CDB7DEB7E7E05B
:104180000C944B2ED82EF2E16F9FE001112400E039
:1041900010E0F801EC0FFD1FE45AFA4F4081602F48
:1041A0008D2D0E949E200F5F1F4F0231110589F750
:1041B000E2CFCF93DF93C82F4BE06DEF0E949E209C
:1041C00040E06AE08C2F0E949E208FE39CE90197DB
:1041D000F1F700C0000040E060E08C2F0E949E20BC
:1041E00040E061E08C2F0E949E2040E066E08C2F32
:1041F0000E949E2040E06DEF8C2F0E949E20D0E018
:1042000040E06D2F8C2F0E949E20DF5FD231C1F7DE
:1042100040E06D2F8C2F0E949E20DF5FD432C1F7CB
:1042200040E06D2F8C2F0E949E20DF5FD43BC1F7B2
:104230004BE06DEF8C2F0E949E2041E06AE08C2FB6
:104240000E949E2040E06DEF8C2F0E949E20DF9107
:10425000CF9108950F931F93CF93DF93082F000FF3
:10426000EB0114E21093260480E1FE01A7E2B4E022
:1042700001900D928A95E1F723E030E041E150E0B2
:1042800066E274E0802F0E94EB2D105F6096143B75
:1042900049F7DF91CF911F910F91089580913A04D2
:1042A000882329F06CE374E084E70E942A211092AD
:1042B0003A0480913B04882329F06CEC74E087E792
:1042C0000E942A2110923B040895A4E0B0E0EBE69E
:1042D000F1E20C94282E0E941F2D84E70E94D92021
:1042E00087E70E94D92000EC15E072E1772EE8E024
:1042F000CE2ED12CEE24E394F12C6624639444E07A
:1043000050E0B801CE0101960E945B2E2A8130E078
:10431000C9018497AB80B12C44E2A41AB108EC81A6
:10432000F0E0B497AC0197FF02C0495F5F4F63E0D4
:10433000559547956A95E1F72981237030E0729E83
:10434000B001739E700D1124645A7A4F4B01840E94
:10435000911CB6010E94BC2ED70102C0AA0FBB1F40
:104360008A95E2F7CD01D4019C91892B8C93C501EC
:10437000B7FC079653E0959587955A95E1F7729E9D
:10438000A001739E500D1124445A5A4F4A01880EC1
:10439000911CC501B6010E94BC2EA70102C0440FAA
:1043A000551F8A95E2F7CA01D4019C91892B8C9301
:1043B000CF01F7FD079643E0959587954A95E1F77C
:1043C000729EA001739E500D1124445A5A4F5A01F7
:1043D000A80EB11CCF01B6010E94BC2EF70102C08D
:1043E000EE0FFF1F8A95E2F7CF01D5019C91892B33
:1043F0008C93F901E058FA4F60820C5F1F4FB6E0D2
:1044000000381B0709F07BCF60E084E70E94AB20F7
:1044100061E087E70E94AB202496EEE00C94442EE6
:10442000EEEBF5E0438120E1421B08F440E081819E
:10443000628190E00E94322B0895EEEBF5E043811B
:1044400020E1420F08F44FEF8181628190E00E94E9
:10445000322B0895EEEBF5E0628120E1621B08F457
:1044600060E08181438190E00E94322B0895EEEB61
:10447000F5E0628120E1620F08F46FEF81814381F2
:1044800090E00E94322B0895EEEBF5E0818190E000
:104490004381628108970E94322B0895EEEBF5E08C
:1044A000818190E04381628108960E94322B0895B9
:1044B0008091BE0586958695815009F48EE10E9413
:1044C000422B08958091BE05869586958F5F8F312A
:1044D00008F081E00E94422B08951F920F920FB6C0
:1044E0000F9211248F939F93AF93BF938091880570
:1044F000811113C080912C0390912D03A0912E0364
:10450000B0912F034196A11DB11D80932C03909370
:104510002D03A0932E03B0932F03BF91AF919F91D2
:104520008F910F900FBE0F901F901895209106014C
:104530002223C9F02091300327FF15C0262F26958E
:10454000269526952E31C8F4FC01E20FF11D677007
:1045500081E090E001C0880F6A95EAF7809592812A
:10456000892382830895FC0106962281621301C08B
:1045700012823196E817F907C1F7089520910601D4
:104580002223C1F02091300327FF14C0262F269547
:10459000269526952E3130F5FC01E20FF11D67704E
:1045A00081E090E001C0880F6A95EAF79281892B3B
:1045B00082830895FC0132962FEF30E04191641719
:1045C00089F02F3F19F4411101C0232F3F5F36308E
:1045D000A9F72F3F39F0FC01E20FF11D27FDFA95F5
:1045E000628308950895A3E0B0E0E9EFF2E20C944D
:1045F000342E209186053091870528173907A1F0C0
:104600009093870580938605E0918405F091850558
:10461000309751F024E029839B838A830680F781B9
:10462000E02DCE01019609952396E2E00C94502EE0
:10463000A3E0B0E0EEE1F3E20C94342E2091820589
:104640003091830528173907A1F090938305809353
:104650008205E0918405F0918505309751F023E0C3
:1046600029839B838A830680F781E02DCE01019602
:1046700009952396E2E00C94502EE0918405F09188
:104680008505309729F00190F081E02D0995089576
:1046900080E00895A0E2B0E0E0E5F3E20C94342E6F
:1046A0009FEF99838A83CE0101960E94852BA09665
:1046B000E2E00C94502E882311F0FA0101C0FB01B6
:1046C000099508951F93CF93DF93FC01EF5CFD4F95
:1046D00020816223B9F0EC010E94B729182F0E94B3
:1046E000B72920E8829FC00111247FE7790F612F4D
:1046F0008091C1050E94302A462F282F672FCE01B6
:104700000E94E40ADF91CF911F910895A0E0B0E0EC
:10471000ECE8F3E20C942F2EEC01FC01EF5CFD4F72
:104720009081692349F1D090C0050091C105109195
:10473000BF05E12EF12C0E94B729282FC7018C5408
:104740009F4F68E671E00E94BC2E8E199F0997FD6D
:10475000039695958795959587952370612F289F4A
:10476000600D11247D2D802F0E94302A462F282F86
:10477000672FCE010E94E40ACDB7DEB7E7E00C94C4
:104780004B2E0E94422B08950E94652180E090E00C
:104790000E94822E863E9E4F21F00E94CD180E94DC
:1047A000791081E08093BD0548E050E068E170E059
:1047B0008EEB95E00E94642E1092BD058091BE059F
:1047C0008C7F11F40E94791008950E946E166093F8
:1047D0002104709322048093230490932404209155
:1047E0002504211109C02091BE05322F337021F01C
:1047F000322F3695369501C030E0209118012130D6
:1048000091F028F0223099F02330F1F008951092C1
:1048100015016093B6057093B7058093B805909322
:10482000B90581E00EC0832F0E94E70A08953093F6
:1048300012018091BE058370809311010E944E2168
:1048400083E08093180108958091BD05882351F07D
:1048500048E050E068E170E08EEB95E00E94882E21
:104860001092BD054091B6055091B7056091B8050D
:104870007091B9052FB7F89480912C0390912D0376
:10488000A0912E03B0912F032FBF841B950BA60B75
:10489000B70B4A97A105B10510F0109218010895C1
:1048A000CF92DF92FF920F931F93CF93DF936C0110
:1048B000009102048091E503082BC7E0D0E010E0EE
:1048C000C8010C2E02C0959587950A94E2F780FDE9
:1048D00004C02197A8F7F12C09C0FC2EB6018C2F3B
:1048E0000E9493170E94B017019799F38F2DDF91C3
:1048F000CF911F910F91FF90DF90CF900895CF93AC
:10490000DF93EC010E945024BE010E9493170E9485
:10491000B017DF91CF910895292F9E3078F586301A
:1049200068F590E036E0239F800D911D1124682FDB
:10493000677023E0969587952A95E1F7FC01EE0FC5
:10494000FF1FE80FF91FE757FA4F40E050E080E003
:10495000219130E0062E02C0369527950A94E2F7A1
:1049600021703327042E01C0220F0A94EAF7822B0C
:104970004F5F5F4F4330510559F7089580E0089528
:10498000292F9E3088F5863078F590E036E0239F19
:10499000800D911D1124282F277051E001C0550F63
:1049A0002A95EAF723E0969587952A95E1F7FC0189
:1049B000EE0FFF1FE80FF91FE757FA4F20E030E036
:1049C00070E04081CB01022E02C0969587950A9433
:1049D000E2F78170819584278523842781932F5F57
:1049E0003F4F2330310569F70895A0E2B0E0EBEFC7
:1049F000F4E20C94332E0E94C204182F8091BA0561
:104A00008823A9F02FEF80E792E02150804090406A
:104A1000E1F700C0000085E08983812F0E94AE0489
:104A20008A838EEF8B83CE0101960E94852B109393
:104A30000204A096E3E00C944F2E21E030E001C088
:104A4000220F8A95EAF720958091020482230E9422
:104A5000F524089521E030E001C0220F8A95EAF79D
:104A600080910204822B0E94F52408958093E5032F
:104A70000895FC0124812223D9F0808191810E9434
:104A80007F2492959F70963079F010F4925001C077
:104A90009A50923068F4803F69F018F4883E40F4F0
:104AA00009C0843F29F406C0883E20F0813F11F000
:104AB00080E0089581E0089580910601882331F017
:104AC0008091300387FF02C08EE101C086E0E3E6FB
:104AD000F3E0DF011D928A95E9F780E090E00E9403
:104AE000182380E090E00E94F3221092E4030E94D9
:104AF0005019E1EBF5E085E0DF011D928A95E9F7B9
:104B00001092AA051092AB051092AC050E940B2BD7
:104B10000895882321F00E9449190E945019089590
:104B2000882339F090913303892B809333030E94BB
:104B300050190895662309F45CC08D3C21F40E944D
:104B4000DA2A819504C08E3C29F40E94DA2A8093E7
:104B5000B305C5C08F3C21F40E94DA2A819504C0B8
:104B6000803D29F40E94DA2A8093B205B8C0893DBD
:104B700019F40E94BA2A05C08A3D31F40E94BA2A6B
:104B800081958093B405ABC08B3D21F40E94BA2A75
:104B9000819504C08C3D29F40E94BA2A8093B50502
:104BA0009EC09FE2980F983078F421E030E0A90190
:104BB00002C0440F551F9A95E2F7CA019091B105C2
:104BC000892B8093B1058BC08D3D21F48091AC057C
:104BD00081600CC08E3D21F48091AC05826006C0DE
:104BE0008F3D09F07CC08091AC0584608093AC055A
:104BF00076C08D3C39F49091B30597FF35C0109283
:104C0000B30559C08E3C29F49091B3051916BCF335
:104C10002BC09091B2058F3C29F497FF25C01092CC
:104C2000B20549C0803D19F41916CCF31DC090910E
:104C3000B405893D29F41916BCF41092B4053BC0A3
:104C40008A3D19F497FF10C0F8CF8B3D39F490914D
:104C5000B50597FF09C01092B5052DC08C3D21F414
:104C60009091B5051916BCF39FE2980F983080F427
:104C700021E030E0A90102C0440F551F9A95E2F7E8
:104C8000CA0180959091B10589238093B10513C025
:104C90008D3D21F48091AC058E7F0BC08E3D21F4BB
:104CA0008091AC058D7F05C08F3D29F48091AC05C6
:104CB0008B7F8093AC058091B205811106C08091F5
:104CC000B305811102C01092AA058091B40581112B
:104CD00006C08091B505811102C01092AB050E94FB
:104CE0000B2B0895882309F460C0823869F40E9470
:104CF0003D2381FF5AC069E381E693E00E94BE2212
:104D00000E94501969E30EC0833899F40E943D2334
:104D100080FF4BC063E581E693E00E94BE220E94C3
:104D2000501963E581E693E00E9496220E94501993
:104D30000895843869F40E943D2382FF36C067E4F9
:104D400081E693E00E94BE220E94501967E4EACFF8
:104D50009CEF980F913A10F4682FE4CF90E2980FEF
:104D6000983050F4877091E001C0990F8A95EAF766
:104D7000892F0E944919DACF9BE5980F933028F4C8
:104D800080E090E00E941823089598E5980F9B31E9
:104D900028F480E090E00E94F322089593E3980FB6
:104DA000933118F460E00E949A250895CF938823E8
:104DB00009F4BDC0C82F8238B1F40E943D2381FDA3
:104DC000B6C069E381E693E00E94BE220E945019BA
:104DD0002FEF87EE93E0215080409040E1F700C034
:104DE000000069E317C08338E1F40E943D2380FD91
:104DF0009EC063E581E693E00E94BE220E945019A6
:104E00002FEF81EE94E0215080409040E1F700C008
:104E1000000063E581E693E00E9496220E9450190B
:104E200086C08438B1F40E943D2382FD80C067E4CF
:104E300081E693E00E94BE220E9450192FEF81EE7E
:104E400094E0215080409040E1F700C0000067E40A
:104E5000E1CF8CEF8C0F813AB8F580910601882361
:104E6000E1F08091300387FF18C0EC2FE695E695BE
:104E7000E695F0E0EF59FC4F8281282F30E04C2F6F
:104E8000477081E090E002C0880F991F4A95E2F7D1
:104E900082239323892B59F411C0E3E6F3E0819137
:104EA000C81729F023E0E936F207C9F707C06C2FCD
:104EB00081E693E00E9496220E9450196C2F81E6B1
:104EC00093E00E94BE22AACF80E28C0F883068F463
:104ED000C77081E090E001C0880FCA95EAF7909111
:104EE0003303892B8093330399CFEBE5EC0FE33049
:104EF00040F4F0E0E05DFE4F808190E00E941823D6
:104F000016C0E8E5EC0FEB3150F4F0E0EE0FFF1FB8
:104F1000ED5CFE4F808191810E94F32208C083E303
:104F20008C0F833120F461E08C2F0E949A25CF9161
:104F300008950F931F9310E0F801EE0FFF1FEF523B
:104F4000FE4F9081905797FD9195000F111FF8012A
:104F5000EE52FE4FE081F0E0B097DF01AA0FBB1FD9
:104F60008D010E0F1F1F2003D001219FB00D1124B2
:104F7000E8E3F0E0E91BF10997FDF3959F01220FAB
:104F8000331F89010E0F1F1F40039001419F300DF9
:104F900011242A0F3B1F37FF02C021583F4F220F19
:104FA000232F221F330B620F1F910F9108950F9330
:104FB0001F93522F10E0F801EE0FFF1FEE52FE4F2D
:104FC000E081F0E0B097EE0FFF1F9F015203D00188
:104FD000539FB00D1124000F111FF801EF52FE4F27
:104FE000008110E000571109000F111F40039001CC
:104FF000419F300D11242A0F3B1F37FF02C021585B
:105000003F4F220F232F221F330B620F1F910F914F
:1050100008950F931F93522F10E0F801EE0FFF1F1A
:10502000EE52FE4FE081F0E0B0979F015203D001B5
:10503000539FB00D1124000F111FF801EF52FE4FC6
:10504000008110E00057110940039001419F300D8D
:1050500011242A0F3B1F37FF02C021583F4F220F58
:10506000232F221F330B620F1F910F910895EF9290
:105070000F931F9393E0099F8001112415950795C5
:105080006E2D600F1F910F91EF900895A22F50E0A9
:10509000FA01EE0FFF1FEE52FE4F9081905297FDE6
:1050A0009195440F551FFA01EF52FE4F3081232F87
:1050B00030E02A1B3109290F311D97FD3A95620F07
:1050C0000895E42FF0E0EE0FFF1FEE52FE4F6081D7
:1050D000621B0895E42FF0E0EE0FFF1FEF52FE4F2A
:1050E0006081621B0895622F0895E42FF0E0EE0FB7
:1050F000FF1FEF52FE4F408134EE439F412D11249C
:10510000E82FF0E050E0445E5F4FDA01A21BB109E6
:105110009D01B7FF03C031952195310993E0220F1E
:10512000331F9A95E1F7AF01421B530B9A0157FFCA
:1051300002C020E030E0582F259F212D1124822F1E
:105140000895E42FF0E0EE0FFF1FEF52FE4F408175
:1051500034EE439F412D1124E72FF0E050E0445EF0
:105160005F4FDA01A21BB1099D01B7FF03C0319562
:105170002195310993E0220F331F9A95E1F7AF0192
:10518000421B530B9A0157FF02C020E030E0279FDB
:10519000212D1124722F0895FC019B01009721F409
:1051A00077FF2BC080E80895AC0197FF04C0442727
:1051B0005527481B590BB901640F751F37FD0CC0EB
:1051C000241B350BC901A5E0880F991FAA95E1F7AB
:1051D0000E94BC2E80E20CC0CB0165E0880F991FB5
:1051E0006A95E1F7BA01621B730B0E94BC2E80E640
:1051F000861BF7FF03C08195089580E00895EF9224
:105200000F93CF93DF93D72FC82FC9010E19BA017F
:105210000E94CC28602F681B7D2F8C2FDF91CF91AF
:105220000F91EF9008950F93CF93DF93D72FC82F4F
:10523000C901BA010E94CC28682F600F7D2F8C2FE6
:10524000DF91CF910F910895EF920F931F93CF931A
:10525000DF93D62FC72F182FC9010E19010FBA01DE
:105260000E94CC28081B202F219F212D1124822F42
:105270006D2F7C2FDF91CF911F910F91EF900895AB
:10528000EF920F931F93CF93DF93D62F172FC82F33
:10529000C9010E19070FBA010E94CC28702F781B84
:1052A000719F712D11246D2F8C2FDF91CF911F9144
:1052B0000F91EF900895FF920F931F93CF93DF9379
:1052C000F62ED72F182FC901C12FC01BBA010E947B
:1052D000CC28982F990F890FC81B2C2F219F212D87
:1052E0001124822F6F2D7D2FCDB7DEB7E5E00C9412
:1052F0004D2EFF920F931F93CF93DF93F62E172F10
:10530000D82FC901C72FC01BBA010E94CC28982FE3
:10531000990F890F7C2F781B719F712D11246F2D90
:105320008D2FCDB7DEB7E5E00C944D2E482F982F8A
:1053300046FD9095E92FEF739F7046FD9F5FE295C4
:10534000EF70EE0FF0E0EB58FE4F2181299F802D8A
:10535000212D112482958F702295207F822B308100
:10536000982F930F892F47FD81958058089540917C
:1053700013015091140125E038E0429FC001439F82
:10538000900D529F900D1124875E994C90931401BB
:1053900080931301890F0895BC018230910508F4B0
:1053A0000895613E8EE1780748F49B0195E03695BB
:1053B00027959A95E1F748E0420F01C04FEF91E041
:1053C000242F30E0290F311D35952795229FF001BC
:1053D000239FF00DF00D11246E177F0718F44FEF87
:1053E000420F04C02F3F39F091E0920F491740F768
:1053F0008FEF890F08958FEF08950F93CF93DF9369
:10540000D72FC82F47FD4195E8E3F0E0CF01841B7B
:10541000910947FD9395889FB001899F700D700D8C
:105420001124229FC001239F900D900D1124860FFF
:10543000971F0E94CC29682F660F860F682F600F78
:105440007D2F8C2FDF91CF910F91089520E030E0D8
:10545000869F212D969F200D311D1124C90108958D
:10546000A0E0B0E0E6E3FAE20C942E2EF62E472FF1
:10547000E82FF0E0711106C0E058F94F8491782FC1
:10548000682F73C0272F30E0E058F94FE491FE2FCA
:105490000E2F10E056E0659FC0011124CFEFD0E041
:1054A000BE010E94102E5BEA5603C001579F900D6B
:1054B00011248F0D911D8F0D911D982F990F980F0D
:1054C0007E01E21AF30AE09ED001E19EB00DF09E4B
:1054D000B00D11248B2F499FA0011124452F552772
:1054E0007E01E41AF50AE09EA001E19E500DF09EB7
:1054F000500D11246E01C91AD108C29E7001C39EBD
:10550000F00CD29EF00C11242F2D3327C21BD30B8D
:10551000C09F9001C19F300DD09F300D1124932F5B
:105520006230710591F048F461157105E1F0613068
:105530007105B9F49E2FE52F16C06430710569F02E
:1055400040F06630710579F00CC09E2FEB2F832F51
:105550000AC0EB2F8F2F952F06C09B2F8E2FE32F86
:1055600002C09B2F852F7E2F692FCDB7DEB7E8E0D5
:105570000C944A2E8091AC0580FD18C081FD14C0AA
:1055800082FD16C08091AB05882381F08C3380F4B6
:1055900027E0829FC00111246CE370E00E94BC2EC2
:1055A000862F672B19F005C083E0089581E00895E8
:1055B00087E008958091AC0580FD17C081FD17C07C
:1055C00082FD19C08091AA05882399F08C3398F444
:1055D00028E3829FC00111246CE370E00E94BC2E7E
:1055E000862F672B49F481E008958EE008958CE1C1
:1055F000089588E0089588E30895282F35EB230364
:10560000C001112497FF03C08058910902C080583F
:105610009F4F892F08950E947A162091B20521117B
:1056200004C02091B305222321F09093B00580930C
:10563000AF052091B405211104C02091B5052223A6
:1056400021F09093AE058093AD05E0918405F09133
:105650008505309731F00480F581E02D81EB95E0F0
:10566000099508959091BE05937059F08093BF05F8
:105670006093C0054093C1058091BD058160809312
:10568000BD0508959091BE059370A1F0811102C0EF
:10569000946007C08F3110F0986703C0880F880F9F
:1056A000982B9093BE05109218018091BD058160E2
:1056B0008093BD050895EF92FF920F931F93CF93B0
:1056C000DF937C018B010E940616811119C0E7014E
:1056D00001151105A1F08091E80085FD0AC08091B7
:1056E000E8008E778093E8000E940616882381F3F5
:1056F00007C089918093F10001501109E9CF80E042
:10570000CDB7DEB7E6E00C944C2ECF932091BC05CC
:10571000243011F5C091E900CF703091EC00232FB7
:10572000217030FD20E8C22B23E02093E900209176
:10573000E80020FF0EC040E050E060E270E00E9410
:105740005B2B81111092BA058091E8008E778093CF
:10575000E800CF70C093E900CF910895A0E0B0E0D9
:10576000E4EBFBE20C942F2E8C0180911501C82FE5
:10577000CC0FCC0FC80FD5E0DC0FD13308F0D0E34D
:105780006091C2056695669521E0620F08F46FEF9F
:105790008091B6059091B7050E94262AD82ECD1784
:1057A000F0F4EC2EF12CF701EF5CFD4F908180912D
:1057B0001601892391F06091BF057091C005809119
:1057C000C1052D2D4C2FF80109950E94302A462F36
:1057D000282F672FC7010E94E40ACF5FE0CF81E046
:1057E000D03308F080E0CDB7DEB7E7E00C944B2E65
:1057F000A0E0B0E0EEEFFBE20C942B2E6C01809168
:105800001501C82FCC0FCC0FC80F15E01C0F11339A
:1058100008F010E36091C205669566958091B60523
:105820009091B7050E94262AD82F80E48D0F0E9400
:10583000962990E8F92EF80E8D2F0E94962920E8DF
:10584000922E980EC11700F5AC2EB12CF501EF5C2D
:10585000FD4F9081809116018923A1F06091BF05D1
:105860007091C0058091C105ED2E0C2F292D4F2D73
:10587000F60109950E94302A462F282F672FC5016F
:105880000E94E40ACF5FDECF81E0103308F080E0B1
:10589000CDB7DEB7EBE00C94472E6F927F928F92DC
:1058A0009F92AF92BF92CF92DF92EF920F931F938E
:1058B000CF93DF933C0180911501C82FCC0FCC0F03
:1058C000C80FD5E0DC0FD13308F0D0E36091C205FA
:1058D00066958091B6059091B7050E94262A182FEB
:1058E000CD1708F044C08C2E912CF401EF5CFD4FD5
:1058F0009081809116018923C1F1F401EE0FFF1F01
:10590000EF52FE4FC080D12C80E7C81AD108F401B5
:10591000EE0FFF1FEE52FE4FA080B12CE0E2AE1A58
:10592000B108CC9C9001CD9C300D300D1124AA9C67
:10593000C001AB9C900D900D1124820F931F0E940B
:10594000CC29082F6091BF057091C0058091C105D9
:10595000E12E9501A601F30109950E94302A462FF8
:10596000282F672FC4010E94E40ACF5FB9CF81E0DE
:10597000D03308F080E0DF91CF911F910F91EF902D
:10598000DF90CF90BF90AF909F908F907F906F905F
:105990000895A0E0B0E0EFECFCE20C942E2E6C0138
:1059A00080911501C82FCC0FCC0FC80FD5E0DC0FAC
:1059B000D13308F0D0E36091C20566958091B605B9
:1059C0009091B7050E94262A182FCD1778F5EC2E56
:1059D000F12CF701EF5CFD4F908180911601892336
:1059E00019F1F701EE0FFF1FEE52FE4F208130E05C
:1059F00020523109F701EE0FFF1FEF52FE4F408199
:105A000050E0405751096091BF057091C0058091E9
:105A1000C105012FF60109950E94302A462F282F33
:105A2000672FC7010E94E40ACF5FCFCF81E0D03358
:105A300008F080E0CDB7DEB7E8E00C944A2E109273
:105A4000B9008CE08093B8000895A0E0B0E0EBE2EC
:105A5000FDE20C942B2EB82EEB010E947A166C01FD
:105A6000C431D10558F0CF3F8FEFD80759F0CE01A0
:105A700064E170E00E94102E7B0107C0EE24E394E5
:105A8000F12C03C025E0E22EF12C84E8A82E94EA44
:105A9000992E1092BC009092BC000E947A168C0144
:105AA0008091BC0087FD07C0C8010E945F16E81600
:105AB000F906B0F729C08091B900887F883041F09D
:105AC0008091B900887F803119F00FEF1FEF1EC061
:105AD000B092BB00A092BC000E947A168C0180910B
